:020000040800F2
:10000000482500204501000895160008D50900087C
:1000100079160008D10200085F27000800000000E0
:10002000000000000000000000000000A31C000809
:10003000390600080000000055190008BD2100081D
:100040005F0100085F0100085F010008B51B0008A0
:100050005F0100085F0100085F0100085F01000800
:100060005F0100085F0100085F0100085F010008F0
:100070005F0100085F0100085F0100085F010008E0
:100080005F0100085F0100085F0100085F010008D0
:100090005F0100085F0100085F0100085F010008C0
:1000A0005F0100085F0100085F0100085F010008B0
:1000B0005F0100085F0100085F0100085F010008A0
:1000C0005F0100085F0100085F0100085F01000890
:1000D0005F010008A9240008592500085F010008F5
:1000E0005F0100085F0100085F0100085F01000870
:1000F0005F0100085F0100085F0100085F01000860
:100100005F0100085F0100085F0100085F0100084F
:100110005F0100085F0100085F0100085F0100083F
:100120005F0100085F0100085F0100085F0100082F
:10013000DFF80CD000F058F800480047392A0008D2
:10014000482500200648804706480047FEE7FEE7AE
:10015000FEE7FEE7FEE7FEE7FEE7FEE7FEE7FEE777
:10016000BD2200083101000810B5044604E00B78F8
:1001700000F8013B03B1491C521EF8D2204610BDC5
:10018000421C10F8011B0029FBD1801A704710B5E2
:10019000002200E0521C835C8C5CA34201D1002B46
:1001A000F8D1D8B2E1B2401A10BD034611F8012BC4
:1001B00000F8012B002AF9D11846704730B50B46DC
:1001C000014600202022012409E021FA02F59D4287
:1001D00005D303FA02F5491B04FA02F52844151E5B
:1001E000A2F10102F1DC30BD064C074D06E0E068EB
:1001F00040F0010394E8070098471034AC42F6D36E
:10020000FFF79AFF0C6700082C6700082DE9F04102
:1002100005460E4606F11401284601F069FE074620
:1002200047B197F83C00401C87F83C0011A001F052
:10023000C3FF1CE0482002F083FC044600206064F9
:1002400006F1140104F11400FFF7AFFF3146204618
:10025000FFF7ABFF306C2064012084F83C00686C31
:1002600060646C6495F83C00401C85F83C00BDE877
:10027000F081000054686520676F6F647327206306
:100280006F756E7420616464656420210000000055
:1002900008B54FF40040ADF8000003208DF80200CF
:1002A00010208DF803006946044800F045FA4FF429
:1002B0000041024800F01DFB08BD0000000801409D
:1002C00010B5012001F06AFB002001F067FB10BDB2
:1002D00000BFFEE738B504462146684601F0D0FC71
:1002E000009801F04DF9009801F035FB0B480068CB
:1002F00001F032FB09480099006801F047FD20B980
:10030000009802F071FB002038BD009802F06CFBF1
:100310000248006801F020FB0120F5E760000020A2
:1003200010B503490348006801F076FD10BD0000D8
:10033000080100206000002010B504460D48006848
:10034000B0B92078412812D1A07842280FD1607826
:10035000302800D110BD02200749087007480388E3
:10036000074802880021084600F0FCFB00E0F1E7A6
:1003700000BFEFE75C0000207F0000203600002077
:100380003400002030B585B004462046FFF7F8FE63
:100390000F2802D8002005B030BD21462448FFF7C1
:1003A00004FF24480078062827D123480078012834
:1003B00023D11F480078682837D11D480079732859
:1003C00033D11E48006801F08FFA00201A490870E6
:1003D00001201849087001F077F8C088C0EBC00010
:1003E00085B2284601F060F8154803881548028850
:1003F0000021084600F0B6FB17E013A001F0DCFE78
:100400000822214601A8FFF7AFFE422001AB41229E
:1004100013A10090144802F0CFF9134901A8FFF787
:10042000C4FE01A911A002F0B7F90120B3E7000052
:10043000D60000207F0000207E0000206000002009
:10044000360000203400002047657420636F646527
:10045000207375636365737366756C2021000000FB
:1004600025632573256300001C010020257300000F
:1004700010B588B0164801F037F84FF6FF714FF409
:10048000784001F027F813A1684602F095F901F0D1
:100490001BF8C08800EB400084B26946204600F09B
:1004A000CDFB4FF6FF711F2001F014F80EA1684636
:1004B00002F082F901F008F8C08800EB4000400427
:1004C000040C6946204600F0B9FB08B010BD0000DE
:1004D0004C00002020202020202047455420474F5A
:1004E0004F445321000000002020202020204255AE
:1004F00059206F72205245540000000010B588B09A
:100500001F4800F0F1FF4FF6FF714FF4784000F004
:10051000E1FF1CA1684602F04FF900F0D5FFC0884A
:1005200000EB400084B26946204600F087FB4FF69E
:10053000FF711F2000F0CEFF17A1684602F03CF9C2
:1005400000F0C2FFC08800EB800084B269462046FC
:1005500000F074FB4FF6FF714FF4784000F0BAFFE3
:1005600008A1684602F028F900F0AEFFC088C0EB91
:10057000C00084B26946204600F060FB08B010BDA0
:100580004C0000202020202424242424242424245B
:10059000242424242400000020202053686F772086
:1005A00074686520436F64650000000070B5044600
:1005B000A068406C20B910A001F0FEFD002070BDC5
:1005C000A068456C04E02E466D6C304602F00CFAD3
:1005D000686C0028F7D10025284602F005FA0020B3
:1005E00060602060A1684864A16881F83C000AA0AE
:1005F00001F0E2FD0120E2E749742773206E6F7479
:10060000206E656365737361727920746F20636C0B
:100610006561722021000000436C6561722074687E
:10062000652053686F7043617274207375636365EE
:10063000737366756C20210070472DE9F041054603
:1006400088462C4600E0646C616C01F11400414660
:10065000FFF79DFD0028F6D1666C376C706C606406
:10066000304602F0C1F90024204602F0BDF995F8A9
:100670003C00401E85F83C003846BDE8F081000093
:1006800010B51048007807281AD2DFE800F00407F8
:100690000A0D1013160001F041FE11E000F09CF964
:1006A0000EE0FFF7E5FE0BE001F06CF808E000F06B
:1006B00075FF05E001F0CEFC02E0FFF71FFF00BF71
:1006C00000BF10BD7F00002008B54FF48060ADF87A
:1006D000000003208DF8020004208DF80300694615
:1006E000144800F029F84FF40070ADF80000032022
:1006F0008DF8020018208DF8030069460D4800F0BF
:100700001BF80420ADF8000018208DF8030003202A
:100710008DF802006946074800F00EF80820ADF891
:10072000000004208DF803006946024800F004F838
:1007300008BD0000000801402DE9F04102460025F7
:100740000026002000230024002791F803C00CF0AD
:100750000F0591F803C00CF0100CBCF1000F03D092
:1007600091F802C04CEA050591F800C0BCF1000FF9
:1007700031D0146800202BE04FF0010C0CFA00F38C
:10078000B1F800C00CEA03069E4220D183004FF06E
:100790000F0C0CFA03F7BC4305FA03FC4CEA040403
:1007A00091F803C0BCF1280F06D14FF0010C0CFAF0
:1007B00000FCC2F814C00AE091F803C0BCF1480F75
:1007C00005D14FF0010C0CFA00FCC2F810C0401C1F
:1007D0000828D1D31460B1F800C0BCF1FF0F34DD9C
:1007E000546800202EE000F1080C4FF0010808FAD0
:1007F0000CF3B1F800C00CEA03069E4221D183003D
:100800004FF00F0C0CFA03F7BC4305FA03FC4CEA5B
:10081000040491F803C0BCF1280F05D100F1080CC5
:1008200008FA0CF8C2F8148091F803C0BCF1480F24
:1008300007D100F1080C4FF0010808FA0CF8C2F8D3
:100840001080401C0828CED35460BDE8F081000021
:10085000F0B50A46002300240021002500F00046E0
:10086000B6F1004F02D11D4EF16901E01B4E7168D7
:10087000C0F3034583B200F44016B6F5401F08D11B
:1008800021F07061154E766826F07066134F7E6019
:1008900012E000F48016B6F5801F06D1032606FA92
:1008A00005F4A14341F0706106E0460D360103FAFC
:1008B00006F6B14341F0706122B1460D360103FAEC
:1008C00006F6314300F00046B6F1004F02D1034E68
:1008D000F16101E0014E7160F0BD000000000140D7
:1008E0000246002093680B400BB1012000E000207D
:1008F00070474161704701617047014691F83C00C3
:10090000704770470146086C704701468868704719
:100910000146886890F83C007047014608687047B7
:1009200010B501468868426C00238868406C08B99D
:10093000002010BD05E092F83C40106C00FB043331
:10094000526C002AF7D14868984200D04B60486842
:10095000EFE7000001B5009820B909A001F02CFCD8
:10096000002008BD0098012804D10CA001F024FC4F
:100970000120F6E710A001F01FFC0020F1E70000C5
:100980005468652063757272656E74205573657264
:10099000203A20437573746F6D657200546865204A
:1009A00063757272656E742055736572203A204DBE
:1009B000616E6167657200004661696C65642074F0
:1009C0006F206765742074686520557365722021F7
:1009D0000000000000BFFEE710B58EB001F006FD7C
:1009E000384800F081FD4FF6FF714FF61F0000F010
:1009F00071FD3548006818B934A101A801F0DCFE8A
:100A000000F062FDC0884004040C01A9204600F0FB
:100A100015F94FF6FF711F2000F05CFD32480068A9
:100A2000FFF77EFF0446224630A101A801F0C4FE74
:100A300000F04AFDC0888004040C01A9204600F0A3
:100A4000FDF829480068FFF768FF044622462EA1FA
:100A500001A801F0B1FE00F037FDC08800EB4000B6
:100A60004004040C01A9204600F0E8F84FF6FF719D
:100A70004FF4784000F02EFD2AA101A801F09CFE61
:100A800000F022FDC08800EBC00084B201A920461E
:100A900000F0D4F84FF6FF714FF4784000F01AFDE3
:100AA00024A101A801F088FE00F00EFDC08800EB33
:100AB00040008004040C01A9204600F0BFF80EB0ED
:100AC00010BD0000440000205C00002020202020F9
:100AD000202020202020202020205B2043757374BC
:100AE0006F6D6572205D0000600000202053686F0C
:100AF000704361727420402056616C756520202D12
:100B00003E202425640000002053686F704361720A
:100B1000742040204E756D626572202D3E20202588
:100B200064000000203C205E2044656C65746520F4
:100B30005E203E00203C205E20506179205E203EF9
:100B40000000000010B5044624B104210448FFF75A
:100B5000D0FE03E004210248FFF7CDFE10BD0000E7
:100B6000001401402DE9F04106460F4614461D468B
:100B70002B4622463946304600F058F904FB05F072
:100B80000249098800F08EF8BDE8F081420000209B
:100B900001B502E00098401E009000980028F9D1AD
:100BA00008BD00002DE9F05F804689461646A6F193
:100BB00020001FFA80FA1E49096889881C4A1268B9
:100BC000D28801FB02F0C11700EB5171C1F3C707D6
:100BD0001748006800680AFB070B15480068C388BF
:100BE0001348006882884946404600F01FF92C20CF
:100BF00000F0A4FA002416E0002510E01BF8040021
:100C000080212941084020B10A48008800F0AAFA52
:100C100003E00948008800F0A5FA681CC5B2082D59
:100C2000ECDB601CC4B2BC42E6DBBDE8F09F000018
:100C30003C000020400000204200002070B5044627
:100C40000D46002624E03046134909688988084487
:100C500012490988884205DD00260F480068C088CF
:100C6000204484B220460C490968C98808440C49CC
:100C70000988884201DD002600242A782146304672
:100C8000FFF790FF6D1C044800688088304486B2EE
:100C900028780028D7D170BD3C0000203400002007
:100CA0003600002070B504460D4600262C2000F0CA
:100CB00045FA00BF03E0284600F054FA761CA6422D
:100CC000F9D370BD08B50121084600F057FE012197
:100CD000382000F053FE01211A48FFF7B9FD032028
:100CE0008DF8020010208DF803004FF6FF70ADF86C
:100CF000000069461448FFF71FFD2020ADF80000F2
:100D000069461248FFF718FD4020ADF8000069461B
:100D10000E48FFF711FD1020ADF8000069460B48A2
:100D2000FFF70AFD8020ADF8000069460748FFF78D
:100D300003FD0420ADF8000069460548FFF7FCFC00
:100D400008BD000000023000000C0140001001400E
:100D50000014014010B50446072C00DD10BD2848E2
:100D60000470204604EBD0714910A4EB410139B95D
:100D7000F020244908804FF4A0702349088006E041
:100D80004FF4A0701F490880F0201F4908803620CA
:100D900000F0D4F9082141EA441000F0E3F92A20D8
:100DA00000F0CCF9002000F0DDF9002000F0DAF9C5
:100DB00014490988491EC1F3072000F0D3F91149ED
:100DC0000978491EC8B200F0CDF92B2000F0B6F921
:100DD000002000F0C7F9002000F0C4F90A49098892
:100DE000491EC1F3072000F0BDF907490978491EE3
:100DF000C8B200F0B7F92C2000F0A0F900BFADE7B1
:100E000038000020340000203600002010B5FFF725
:100E100059FF0120FFF796FE00F038F802480078ED
:100E2000FFF798FF10BD0000380000202DE9F041C9
:100E300004460D4616461F462A2000F07FF9201270
:100E400000F090F9E0B200F08DF9A119491EC1F34C
:100E50000F2000F087F9A119491EC8B200F082F9ED
:100E60002B2000F06BF9281200F07CF9E8B200F0BA
:100E700079F9E919491EC1F30F2000F073F9E91956
:100E8000491EC8B200F06EF9BDE8F08110B54FF60A
:100E9000FF70FFF77DFECF2000F050F9002000F03A
:100EA00061F9812000F05EF9302000F05BF94FF627
:100EB000FF70FFF76DFEED2000F040F9642000F0B8
:100EC00051F9032000F04EF9122000F04BF9812077
:100ED00000F048F94FF6FF70FFF75AFEE82000F0E7
:100EE0002DF9852000F03EF9102000F03BF9782024
:100EF00000F038F94FF6FF70FFF74AFECB2000F004
:100F00001DF9392000F02EF92C2000F02BF90020DB
:100F100000F028F9342000F025F9022000F022F931
:100F20004FF6FF70FFF734FEF72000F007F920209E
:100F300000F018F94FF6FF70FFF72AFEEA2000F0E4
:100F4000FDF8002000F00EF9002000F00BF94FF63C
:100F5000FF70FFF71DFEB12000F0F0F8002000F058
:100F600001F91B2000F0FEF84FF6FF70FFF710FEAE
:100F7000B62000F0E3F80A2000F0F4F8A22000F018
:100F8000F1F84FF6FF70FFF703FEC02000F0D6F82F
:100F9000352000F0E7F84FF6FF70FFF7F9FDC120AC
:100FA00000F0CCF8112000F0DDF8C52000F0C6F804
:100FB000452000F0D7F8452000F0D4F8C72000F015
:100FC000BDF8A22000F0CEF8F22000F0B7F8002023
:100FD00000F0C8F8262000F0B1F8012000F0C2F8B7
:100FE0004FF6FF70FFF7D4FDE02000F0A7F80F20C8
:100FF00000F0B8F8262000F0B5F8242000F0B2F890
:101000000B2000F0AFF80E2000F0ACF8092000F043
:10101000A9F8542000F0A6F8A82000F0A3F8462074
:1010200000F0A0F80C2000F09DF8172000F09AF8CE
:10103000092000F097F80F2000F094F8072000F046
:1010400091F8002000F08EF8E12000F077F8002001
:1010500000F088F8192000F085F81B2000F082F8D5
:10106000042000F07FF8102000F07CF8072000F04A
:1010700079F82A2000F076F8472000F073F839203C
:1010800000F070F8032000F06DF8062000F06AF818
:10109000062000F067F8302000F064F8382000F0F7
:1010A00061F80F2000F05EF84FF6FF70FFF770FD5B
:1010B000362000F043F8C82000F054F84FF6FF70D7
:1010C000FFF766FD2A2000F039F8002000F04AF80A
:1010D000002000F047F8002000F044F8EF2000F076
:1010E00041F84FF6FF70FFF753FD2B2000F026F874
:1010F000002000F037F8002000F034F8012000F064
:1011000031F83F2000F02EF84FF6FF70FFF740FD5A
:101110003A2000F013F8552000F024F8112000F0D8
:101120000DF80548FFF734FD4FF6FF70FFF730FD6F
:10113000292000F003F810BDFCBF02001021074A6F
:1011400051618021516120211161054908604021D0
:1011500051611161102111617047000000100140C0
:101160000C0C01401021074A51618021116120219E
:10117000116105490860402151611161102111611F
:1011800070470000001001400C0C014010B5012117
:1011900044F21D0000F0F2FB0121480400F0DEFBE8
:1011A000FFF792FA01F05EF901F0B4F900F0A0FC4B
:1011B00000F071FAFFF76CF800F0BCF900F006F9E6
:1011C00010BD000010B578480078012864D10121D5
:1011D000084600F08FF97548007898B900217448E6
:1011E00001F0C0FA7348006800F0B6FB01206F49B7
:1011F0000870714803887148028800210846FFF78B
:10120000B1FC4DE06948007802280ED16C48FFF728
:1012100061F80120654908706748038867480288BB
:1012200000210846FFF79EFC3AE06048007801285C
:101230000BD105205D4908705F4803885F4802882C
:1012400000210846FFF78EFC2AE058480078032862
:101250000ED101205B490870062054490870564899
:1012600003885648028800210846FFF77BFC17E0F8
:101270004E480078052813D14E480068FFF748FB18
:1012800051490978491CC9B24F4A1170884207D2A6
:1012900001201146087003E00021012000F02AF926
:1012A0004148007802285ED1012100F023F93F482F
:1012B000007878B901213E4801F054FA04203B49F6
:1012C00008703D4803883D48028800210846FFF722
:1012D00049FC4CE03548007801280BD10320334904
:1012E0000870354803883548028800210846FFF712
:1012F00039FC3CE02D48007802280BD101202B4915
:1013000008702D4803882D48028800210846FFF701
:1013100029FC2CE02548007803280BD10120234923
:101320000870254803882548028800210846FFF7F1
:1013300019FC1CE01D480078052818D1FEF7F0FFC5
:1013400021480078401EC0B21F490870012801DC06
:1013500001200870184803881848028800210846B0
:10136000FFF700FC03E00021022000F0C3F80E4864
:101370000078032813D10121084600F0BBF80B4880
:10138000007805280FD10120084908700A48038811
:101390000A48028800210846FFF7E4FB03E0002129
:1013A000012000F0A7F810BD790000207F00002088
:1013B0005C00002060000020360000203400002087
:1013C000D60000207E0000207D00002008B501200E
:1013D000ADF8000003208DF8020048208DF80300CE
:1013E00069460948FFF7A8F94FF40050ADF800002E
:1013F00003208DF8020048208DF803006946034859
:10140000FFF79AF908BD00000008014000100140F4
:1014100010B50020204908702048006800F0010045
:10142000A8B11F484078401C1D49487008464078C4
:10143000012801D11849087019484078142809D1A9
:101440000F201749487003201349087002E000205C
:10145000134948704FF400511248FFF741FA012830
:1014600016D10F488078401C0D4988700846807856
:10147000012802D102200849087009488078142800
:1014800009D10F200649887002200349087002E044
:1014900000200349887010BD790000200808014031
:1014A0007A0000200010014070B5044600F00CF8EE
:1014B000C5882B460348028821460020FFF752FBCF
:1014C00070BD000034000020014800687047000033
:1014D0003C000020024A1080024A11807047000040
:1014E00040000020420000200149086070470000D1
:1014F0003C00002070B505460C46012D0AD1012C98
:1015000004D104210A48FFF7F4F903E00421084854
:10151000FFF7F1F9022D0AD1012C04D1082104486A
:10152000FFF7E7F903E008210148FFF7E4F970BD90
:101530000010014008B50C20ADF8000003208DF824
:10154000020010208DF8030069460C48FFF7F4F8FC
:101550000820ADF8000003208DF8020010208DF85F
:10156000030069460548FFF7E7F804210348FFF741
:10157000C2F908210148FFF7BEF908BD001001407B
:1015800010B5044603A12046FEF70FFE0A20206492
:1015900010BD0000676F6F647331000010B588B034
:1015A00000F024FF2048FFF79FFF4FF6FF714FF632
:1015B0001F00FFF78FFF1D480068012803D11CA101
:1015C000684601F0F9F8FFF77FFFC08800EB4000A4
:1015D00084B269462046FFF731FB1C48FFF784FFC1
:1015E0004FF6FF714FF47840FFF774FF18A168467B
:1015F00001F0E2F8FFF768FFC0888004040C694638
:101600002046FFF71BFB17A1684601F0D5F8FFF74E
:101610005BFFC08800EB40004004040C6946204694
:10162000FFF70CFB08B010BD440000205C00002058
:1016300020202020202020202020202020205B206F
:101640004D616E61676572205D0000004C000020F6
:10165000202020202D205363616E6E696E6720204C
:101660002D000000202020202D20546F20436C6985
:101670006E6574202D00000000BFFEE710B5044821
:1016800000F080FC0248006800F066F910BD000020
:1016900060000020704708B525208DF8000000206C
:1016A0008DF8020001208DF80300684600F022F852
:1016B00026208DF8000000208DF801008DF8020032
:1016C00001208DF80300684600F014F84FF4C06064
:1016D00000F048F803208DF8000001208DF801008B
:1016E00000208DF8020001208DF80300684600F00C
:1016F00001F808BD70B5002100230F22C47804B39F
:10170000154C246804F4E064C4F5E064210AC1F1D6
:101710000403CA40447804FA03F184781440214356
:1017200009010E4C0678A155047804F01F05012428
:10173000AC4005786D11AD0005F1E025C5F800411C
:1017400009E0047804F01F050124AC40044D06783C
:10175000761145F8264070BD0CED00E000E400E095
:1017600080E100E002490143024A11607047000035
:101770000000FA050CED00E0014908627047000026
:1017800000000E4230B589B000F030FE00F062FC7F
:1017900035480068FFF7BCF8C4B2002C30D133489C
:1017A000FFF7A2FE4FF6FF7140F21F50FFF792FEC7
:1017B0002D480068FFF7B4F805462A462CA101A879
:1017C00000F0FAFFFFF780FEC088C004050C01A9F5
:1017D0002846FFF733FA24480068FFF79EF80546CD
:1017E0002A462BA101A800F0E7FFFFF76DFEC08895
:1017F00000EBC00085B201A92846FFF71FFA30E0D0
:101800001A48FFF771FE4FF6FF7140F21F50FFF7C5
:1018100061FE15480068FFF783F805462A4624A1B3
:1018200001A800F0C9FFFFF74FFEC088611D4843C3
:1018300085B201A92846FFF701FA0B480068FFF7B7
:101840006CF805462A4621A101A800F0B5FFFFF774
:101850003BFEC088A11D484385B201A92846FFF779
:10186000EDF909B030BD0000600000204400002008
:1018700020202020202053686F7043617274204024
:101880002056616C756520202D3E202024256400A3
:1018900020202020202053686F7043617274204004
:1018A000204E756D626572202D3E2020202564003B
:1018B0002053686F704361727420402056616C75CC
:1018C0006520202D3E202024256400002053686FD1
:1018D00070436172742040204E756D626572202DD8
:1018E0003E2020202564000070B50446204600F00C
:1018F00087FB20B108A000F05FFC002070BD2046EF
:10190000FFF70EF805462046FEF750FE09A000F04E
:1019100053FC2846F2E700005468652053686F7056
:101920004361727427732076616C7565203A2030AC
:10193000000000005468652053686F704361727442
:101940002070617965642073756363657373667570
:101950006C202100704770477047000029B1064A8B
:10196000D2690243044BDA6104E0034AD26982433C
:10197000014BDA61704700000010024029B1064AAD
:1019800092690243044B9A6104E0034A92698243DC
:10199000014B9A6170470000001002400149086045
:1019A000704700004004424230B50021002200246C
:1019B00000232D4D6D6805F00C0121B1042905D0DF
:1019C000082923D105E0294D056022E0274D056057
:1019D0001FE0254D6D6805F47012234D6D6805F408
:1019E0008034022505EB92421CB9214D5543056018
:1019F0000BE01D4D6D6805F400351DB11C4D5543C0
:101A0000056002E0194D5543056002E0174D056081
:101A100000BF00BF144D6D6805F0F0010909154DB8
:101A20006B5C0568DD4045600F4D6D6805F4E06155
:101A3000090A104D6B5C4568DD4085600A4D6D6894
:101A400005F46051C90A0B4D6B5C4568DD40C5600B
:101A5000054D6D6805F44041890B074D6B5CC56809
:101A6000B5FBF3F5056130BD0010024000127A00AD
:101A700000093D00140000202400002010B501469C
:101A80000022002300204A11012A02D1094C2368B8
:101A900006E0022A02D1074C236A01E0054C636A82
:101AA00001F01F02012494401C400CB1012000E011
:101AB000002010BD0010024001490860704700007E
:101AC0008004424201490860704700003C044242E1
:101AD0000249096A0143014A11627047001002403D
:101AE000024909888143014A118070470428004057
:101AF00010B501214FF0C050FFF730FF0120FFF774
:101B00003BFEFEF7DDFB0120FFF7D6FF00BF6120A3
:101B1000FFF7B4FF0028FAD04FF40070FFF7D8FFAA
:101B20000120FFF7CFFF00F099F800F08DF80121B8
:101B3000084600F05BF800F087F847F6FF7000F009
:101B400073F800F081F848F23B0000F05FF800F015
:101B50007BF810BD0348008840F010000149088060
:101B60007047000004280040034800884FF6EF71DA
:101B700008400149088070470428004000210348BC
:101B80000188001F008841EA004070471C2800407F
:101B900001460020064A12880A40D0B2044A121FA9
:101BA00012880A4012B108B1012000E000207047FD
:101BB0000428004010B50120FFF7EAFF88B101209A
:101BC000FFF78EFF01200749086000F03DF8FFF79E
:101BD000D5FF0549884204D1002000F017F800F035
:101BE00033F810BD680000207F51010029B1064A7A
:101BF00012880243044B1A8004E0034A128882438D
:101C0000014B1A80704700000028004000B50246D2
:101C1000FFF7A0FF100C03490880091D0A80FFF799
:101C2000A3FF00BD1828004000B50246FFF792FF51
:101C3000C2F3034003490880091D0A80FFF794FF9F
:101C400000BD00000828004000BF0348008800F0E5
:101C500020000028F9D07047042800400748008879
:101C60004FF6F77108400549088000BF0348008817
:101C700000F008000028F9D0704700000428004058
:101C800070B504460D46482000F05AFF2060002041
:101C900021684864216801F114002946FEF785FA9D
:101CA00070BD704710B500F001F810BD0CB50020F4
:101CB000019000903348006840F48030314908605A
:101CC00000BF3048006800F4003000900198401CCC
:101CD0000190009818B90198B0F5A06FF1D129488A
:101CE000006800F4003010B10120009001E00020F5
:101CF00000900098012843D12348006840F010006C
:101D0000214908600846006820F003000860084682
:101D1000006840F0020008601A48406819494860AD
:101D20000846406848600846406840F48060486063
:101D30000846406820F47C1048600846406840F43B
:101D4000E81048600846006840F08070086000BFF6
:101D50000C48006800F000700028F9D0094840687D
:101D600020F00300074948600846406840F0020040
:101D7000486000BF0348406800F00C000828F9D113
:101D80000CBD0000001002400020024070B5044667
:101D90000D46A06890F83C000F2804DB0AA000F074
:101DA0000BFA002070BD2946A068FEF72FFA2068C4
:101DB000401C20606068296C084460600DA000F041
:101DC000FBF90120EEE700004661696C6564207450
:101DD0006F2061646420676F6F6473202C205368E8
:101DE0006F70436172742069732066756C6C20217A
:101DF0000000000041646420676F6F647320746F9B
:101E00002053686F704361727420737563636573E8
:101E10007366756C202100002DE9F04104460F46E1
:101E2000204600F0EDF828B115A000F0C5F900201B
:101E3000BDE8F0813946A06800F05AF80546C5B102
:101E400095F83C00012805DD95F83C00401E85F81A
:101E50003C0004E03946A068FEF7EFFB0646206828
:101E6000401E20606068801B606014A000F0A4F930
:101E700004E019A000F0A0F90020D9E70120D7E77D
:101E80004661696C656420746F2064656C65746577
:101E900020676F6F6473202C2074686572652069F9
:101EA00073206E6F20676F6F647320696E205368B4
:101EB0006F704361727420210000000044656C65FE
:101EC000746520676F6F64732073756363657373E4
:101ED00066756C202100000044656C6574652067A0
:101EE0006F6F6473206572726F72202100000000B2
:101EF00070B505460E46686C20B90DA000F05CF97F
:101F0000002070BD6C6C0BE0314604F11400FEF74C
:101F10003EF920B90CA000F04FF92046F1E7646CBF
:101F2000002CF1D10FA000F047F90020E9E70000F4
:101F30005468652053686F70436172742069732020
:101F4000656D70747920210054686520676F6F6437
:101F50007320697320696E2053686F7043617274D7
:101F6000202100005468697320676F6F64732069D3
:101F700073206E6F7420696E2053686F70436172B6
:101F80007420210010B504462068B0B90C2000F080
:101F9000D7FD206000202168086021684860482043
:101FA00000F0CEFD216888600020216889684864BF
:101FB00004A000F001F9012010BD0AA000F0FCF817
:101FC0000020F9E753686F704361727420496E69AD
:101FD0007469616C205375636365737366756C20F7
:101FE0002100000053686F704361727420496E696C
:101FF0007469616C204661696C6564202100000091
:1020000000B501468868406C20B905A000F0D4F8FE
:10201000012000BD08A000F0CFF80020F9E7000083
:102020005468652053686F7043617274206973202F
:10203000656D7074792021005468652053686F7055
:1020400043617274206973206E6F7420656D7074C3
:10205000792021002DE9F0438BB03B480068FEF762
:1020600057FCC6B238480068FEF74FFC456C00F0DC
:10207000BDF93648FFF738FA4FF6FF714FF61F00EB
:10208000FFF728FA32A103A800F096FBFFF71CFA2D
:10209000C0884004040C03A92046FEF7CFFD9EB97A
:1020A0004FF6FF711F20FFF715FA31A103A800F0CA
:1020B00083FBFFF709FAC08800EB800084B203A914
:1020C0002046FEF7BBFD3CE0002437E032480078B4
:1020D000401EA0420BD14FF6FF714FF47840FFF73E
:1020E000F9F905F114012D48FEF75FF805E04FF608
:1020F000FF7140F21F50FFF7EDF92846FEF7FDFB98
:1021000007462846FEF7FEFB80462846FEF7F9FB09
:1021100081464B46621C22A103A8CDE9008700F04E
:102120004BFBFFF7D1F9C088211D484387B203A9B3
:102130003846FEF783FD6D6C601CC4B2B442C5DB4B
:1021400000BF0BB0BDE8F083600000204400002019
:1021500020202020202020202020202020203C2063
:10216000476F6F6473204C697374203E0000000059
:102170002020202020205468657265206973206E1D
:102180006F20676F6F647320696E2053686F7043B0
:1021900061727421000000007D0000200801002011
:1021A00020202025642E20257320202D3E20202451
:1021B00025642078256400007047000010B52D4884
:1021C000007802280BD02B480078032807D0294834
:1021D0000078052803D027480078062827D126480C
:1021E0000088401C80B22449088041F2883188422E
:1021F00020DB00202049088001201E4908700020B3
:102200001E490870FFF760F9C088C0EBC00084B2B7
:102210002046FFF749F91A4803881A480288002126
:102220000846FEF79FFC18A0FFF7C6FF02E000205B
:10223000114908801C480078401CC0B21A49087037
:10224000642804DB00200870012018490870184831
:102250000078401CC0B216490870322804D1002012
:10226000087001201349087013480068401E124985
:10227000086010BD7F000020300000207E0000209C
:1022800036000020340000205468652061637469C2
:102290006F6E20686173206265656E2063616E6396
:1022A000656C6564202100002E0000208000002065
:1022B0002D000020780000202800002010B51348D1
:1022C000006840F001001149086008464068104964
:1022D00008400E494860084600680E4908400B490E
:1022E00008600846006820F48020086008464068BE
:1022F00020F4FE0048604FF41F008860FFF7D2FC16
:102300004FF000600449086010BD0000001002405A
:102310000000FFF8FFFFF6FE08ED00E010B588B002
:1023200000F064F81348FFF7DFF84FF6FF714FF441
:102330007840FFF7CFF810A1684600F03DFAFFF7AC
:10234000C3F8C0888004040C69462046FEF776FC7A
:102350000EA1684600F030FAFFF7B6F8C08800EB2F
:1023600040004004040C69462046FEF767FC08B0B4
:1023700010BD00004C000020202020205B202043C6
:102380007573746F6D6572205D0000002020202041
:102390005B20204D616E6167657220205D0000004A
:1023A0004FF46161B0FBF1F10D4A11604FF46161CE
:1023B000B0FBF1F201FB12013C22B1FBF2F1094A40
:1023C00011604FF46161B0FBF1F201FB12013C229C
:1023D000B1FBF2F302FB1311034A116070470000D6
:1023E0006C000020700000207400002010B58EB03A
:1023F0000E48FFF779F84FF6FF7140F21F50FFF7D4
:1024000069F80B48006800900A4803680A480BA165
:10241000026801A800F0D0F9FFF756F8002401A9DE
:102420002046FEF70BFC0EB010BD0000440000205B
:1024300074000020700000206C000020202020206C
:1024400020202020202020202054696D65203A2063
:1024500025302E32643A25302E32643A25302E3221
:10246000640000001FB54FF4165000900020ADF836
:102470000400ADF80600ADF80800ADF80C000C2023
:10248000ADF80A006946074800F0F4F8012240F26E
:102490002551044800F0C9F80121024800F082F8F3
:1024A0001FBD00000038014010B514480078012815
:1024B00003D130201249087002E011201049087041
:1024C00040F225510F4800F086F8B0B10D4800F0F9
:1024D0003DF9C1B20C480478601C0B4A10700B48DF
:1024E00001551046007806490978884205DB00202E
:1024F0001146087001200649087010BD7E000020BA
:102500002C00002000380140320000209000002004
:10251000640000201FB54FF4165000900020ADF865
:102520000400ADF80600ADF80800ADF80C000C2072
:10253000ADF80A006946074800F09CF8012240F215
:102540002551044800F071F80121024800F02AF8F2
:102550001FBD00000044004010B540F225510D4859
:1025600000F039F8A0B10B4800F0F0F8C1B20A4809
:102570000478601C084A107008480155104600781D
:10258000032805DB0020114608700120044908706B
:1025900010BD00000044004033000020C2000020B5
:1025A0006500002021B1828942F40052828104E05A
:1025B00082894DF6FF731A408281704702460020DF
:1025C000B1F5007F00D100BF13880B400BB1012093
:1025D00000E00020704770B502460024002300256B
:1025E000002040F66A16B14200D100BFC1F3421587
:1025F00001F01F03012606FA03F3012D02D196898B
:10260000334006E0022D02D1168A334001E0968A5B
:1026100033400C12012606FA04F41688344013B134
:102620000CB1012000E0002070BDF0B5034600248D
:1026300000260025002040F66A17B94200D100BFED
:102640001846C1F3421401F01F06012707FA06F5E8
:10265000012C01D10C3004E0022C01D1103000E03B
:1026600014301AB107682F43076002E00768AF43D0
:102670000760F0BD2DE9F04786B005460E46002400
:10268000A24600BFA1460027B08900B100BF2F4677
:102690002C8A4CF6FF700440F08804432C82AC89ED
:1026A0004EF6F3100440B08831890843718908431D
:1026B0000443AC81AC8A4FF6FF400440B089044328
:1026C000AC8201A8FFF770F91F48874202D1DDF8FC
:1026D00010A001E0DDF80CA0A88900F4004040B192
:1026E0000AEBCA0000EB0A1031684900B0FBF1F8B0
:1026F00007E00AEBCA0000EB0A1031688900B0FB62
:10270000F1F86420B8FBF0F004012009642101FB1A
:102710001089A88900F4004040B1322000EBC900C4
:10272000B0FBF1F000F00700044308E0322000EBBA
:1027300009106421B0FBF1F000F00F0004432C817C
:1027400006B0BDE8F08700000038014001468888E7
:10275000C0F308007047C1F308028280704700BFD1
:10276000FEE7000000B50246116004A0FFF724FD5B
:102770001068FEF7EFF8012000BD00004D79557399
:10278000657220496E697469616C20537563636575
:10279000737366756C2021000FB4054B10B503A947
:1027A000044A029800F02CF810BC5DF814FB0000FD
:1027B000C5290008840000200FB4084B10B504A9F7
:1027C00002AA039800F01CF8044602A9002000F0B9
:1027D000F3F8204610BC5DF814FB0000B92900088E
:1027E00002E008C8121F08C1002AFAD170477047DA
:1027F000002001E001C1121F002AFBD17047000038
:102800002DE9FF4F8BB09A460F460546002606E09D
:1028100025280BD052460D9990476D1C761C2878C0
:102820000028F5D10FB03046BDE8F08F0024A04657
:102830000122604900E0044315F8013F203B02FA01
:1028400003F00842F7D128782E2817D115F8010F88
:1028500044F004042A280ED06FF02F022878A0F14B
:10286000300109290AD808EB880102EB410100EB8D
:1028700001086D1CF2E757F8048B6D1C2878692855
:102880003ED006DC0028CDD063280BD0642804D1CC
:1028900036E0732810D075284BD052460D999047DA
:1028A000761C85E017F8040B8DF8000000208DF8E9
:1028B0000100E946012003E057F8049B4FF0FF3088
:1028C00061074FF0000401D40AE0641C44450DDAAE
:1028D0008442FADB19F804100029F6D106E0641CE2
:1028E0008442FCDB19F804100029F8D1264404E0E6
:1028F00019F8010B52460D999047641EF8D257E023
:1029000001CF4FF00A0B002802DA40422D2102E0ED
:10291000210504D52B218DF82410012103E0E107C6
:1029200005D02021F7E70DF1200908910CE00021E6
:10293000F9E701CF4FF00A0BF9E75946FDF73EFCE6
:1029400001F1300209F8012D0028F6D1ADEB0900A4
:1029500000F1200B600701D44FF00108D84502DDDB
:10296000A8EB0B0000E000208046002406E009A848
:102970005246005D0D999047641C761C089884426D
:10298000F5DB04E0302052460D999047761CB8F1F3
:102990000001A8F10108F5DC05E019F8010B524629
:1029A0000D999047761CBBF10001ABF1010BF4DCF3
:1029B0006D1C34E7092801000A68531C0B60107075
:1029C0007047000070B504460D46E1B20548FFF7B8
:1029D000C2FE00BF80210348FFF7F0FD0028F9D0B8
:1029E000204670BD0044004010B5002821D0114B96
:1029F0000022001F196803E0814203D80A46496893
:102A00000029F9D152B11368841A9C4204D100689C
:102A100018441060104602E0506000E0186039B1C0
:102A200002680B1A934203D10B681A44026049688A
:102A3000416010BD88000020354800684FF47A726C
:102A4000B0FBF2F1B1F1807F00D31DE021F07F40B7
:102A5000401E4FF0E022506150170F22002807DA85
:102A600013071D0E2B4B00F00F04241F1D5503E010
:102A700013071C0E284B1C5400BF00204FF0E0220F
:102A800090610720106100BFFEF7C0F9FEF77EFBE2
:102A9000FEF7F4FD0320FEF75DF920480388204887
:102AA000028800210846FEF75DF82FE01D480078F7
:102AB00028B100201B4908701B48FDF763FC1B4828
:102AC000007828B10020194908701948FDF734FC36
:102AD0001848007820B1002016490870FDF7D0FD95
:102AE0001548007830B1002013490870FEF790FCBB
:102AF000FEF768FB11480068012807D1FFF73EF890
:102B00000446FFF74DFC00200C490860CEE70000AA
:102B10000000002018ED00E000E400E03600002096
:102B20003400002064000020900000206500002098
:102B3000C2000020800000207800002068000020F3
:102B4000F0B50B30154D20F007010024144A0FE0BA
:102B500003688B420BD38B4205D95E1A4318476832
:102B6000C3E9006700E04368136002C004E0021D8F
:102B700010680028ECD12046002802D1286808B14E
:102B80000020F0BD064A07481060074A121A22F0DA
:102B90000702C0E9002401202860D7E78C0000204C
:102BA000880000204C010020482100200000000087
:102BB00000000000000000000000000000000018FD
:102BC0001818181818080008180000000000003431
:102BD0002424240000000000000000000000000089
:102BE00016247F2424247E242400000000000008F2
:102BF0003E6848681C1612127C101000000000612C
:102C0000D296740810162949C60000000000000082
:102C10003C646438724ACE467F0000000000001811
:102C20001818180000000000000000000000000458
:102C3000081810303030301010180C04000000203C
:102C40001008080C0404040C0818102000000008E8
:102C50000A341C6A080000000000000000000000A8
:102C600000001818187F1818180000000000000055
:102C700000000000000000181808300000000000EC
:102C800000000000003C0000000000000000000008
:102C90000000000000000018180000000000000202
:102CA00006040C080810102020400000000000005E
:102CB0003C6642475B7342663C0000000000000037
:102CC00018784808080808087E0000000000000086
:102CD0003C460606040810207E00000000000000AC
:102CE0007C0606043C0202067C0000000000000096
:102CF0000C1C14246444FF040400000000000000C5
:102D00007E6060607E0202067C0000000000000021
:102D10001E306048764242623C0000000000000025
:102D20007E0206040C0818103000000000000000AD
:102D30003C6242361C6642423C000000000000003B
:102D40003C664242661A020478000000000000005F
:102D50000000181800000018180000000000000013
:102D600000001818000000181808300000000000CB
:102D7000000004183060100C060000000000000085
:102D8000000000007E007E00000000000000000047
:102D90000000301804060C10200000000000003075
:102DA0001C06060618100010100000000000001C91
:102DB000224141DDB5A5A5AF94C0403C0000000014
:102DC000181C342426627E43C1000000000000006D
:102DD0007C4642467C4242427C00000000000000EB
:102DE0001E204040404040603E00000000000000C7
:102DF0007C46424343434246780000000000000006
:102E00007E6060607E6060607E0000000000000008
:102E10007E6060607E606060600000000000000016
:102E20001E604040CE4242623E00000000000000B2
:102E3000424242427E424242420000000000000004
:102E40007E181818181818187E00000000000000DE
:102E50007C04040404040444780000000000000022
:102E60004244485070584C444200000000000000AA
:102E700020202020202020203E0000000000000014
:102E80006266675F5B5BC1C1C100000000000000BB
:102E9000626272525A4A4E4646000000000000002C
:102EA0003C6243C3C3C343623C0000000000000017
:102EB0007C4642424678404040000000000000004E
:102EC0003C6243C3C3C343623C180F0000000000D0
:102ED0007C6662667C6C6466620000000000000034
:102EE0003E6040601C0602027C0000000000000002
:102EF0007F18181818181818180000000000000093
:102F000042424242424242623C0000000000000055
:102F1000C14342622624341C180000000000000057
:102F2000C1C141495B5B766666000000000000009D
:102F300043663418181C2466C3000000000000001B
:102F4000C14266341C181818180000000000000068
:102F50007E02040C181020607E0000000000001C9F
:102F600010101010101010101010101C0000004055
:102F70002020101008080C04060200000000003C8D
:102F80000C0C0C0C0C0C0C0C0C0C0C3C0000000081
:102F9000181C246200000000000000000000000077
:102FA0000000000000000000000000FF0000002002
:102FB0001000000000000000000000000000000001
:102FC00000003C06023E42467A000000000000403D
:102FD00040405C62424242427C000000000000002F
:102FE00000001E20604060203E0000000000000243
:102FF00002023E62424242663A00000000000000C7
:1030000000003C62427E40603E0000000000000F75
:103010001810107E101010101000000000000000AA
:1030200000003F66426658403E43423C000000407C
:1030300040405C62424242424200000000000018F0
:1030400018007808080808087E0000000000000446
:103050000C007C040404040404040C7800000060E8
:103060006060626C78706864620000000000007844
:1030700008080808080808087E0000000000000092
:103080000000764B4B4B4B4B4B0000000000000008
:1030900000005C6242424242420000000000000028
:1030A00000003C62424342623C000000000000001D
:1030B00000005C62424242427C404040000000000E
:1030C00000003E62424242663A02020200000000F4
:1030D00000006E726360606060000000000000002D
:1030E00000003E20203C06027C00000000000000A2
:1030F0001010FE10101010101E0000000000000044
:1031000000004242424242663A00000000000000D5
:10311000000043426624341818000000000000003C
:103120000000C1C15B5A5E6666000000000000003E
:10313000000062261C181C2662000000000000002F
:10314000000043426624341C181830E000000000E0
:1031500000007E060C1810207E0000000000000E0B
:1031600018101010307010101010180E0000080801
:1031700008080808080808080808080800000030BF
:10318000180808080C0E080808081830000000008D
:1031900000000000714B060000000000000000006D
:1031A000000000000000000000000000000000001F
:1031B000000000000000000000000000000000000F
:1031C00000000000000000000000000000000000FF
:1031D0000000000000000380018001800180018068
:1031E000018001800180018001800000000003C097
:1031F00003C000000000000000000000000000000C
:103200000000000000000E700E700E700C30000008
:1032100000000000000000000000000000000000AE
:10322000000000000000000000000000000000009E
:1032300000000000000000000618063806307FFE7F
:103240000C300C300C300C307FFE0C601C601860B1
:1032500018600000000000000000000000000000F6
:103260000000000000C000C00FF83CC831C0318031
:103270003D801F8003F001F8031C030C031C3FF882
:103280003FE0070006000000000000000000000012
:10329000000000001C007E0E630C631863307E602B
:1032A00000C001800300077C0EE61CC618C630C6AD
:1032B000607C000000000000000000000000000032
:1032C0000000000000000FE01CF0387038701C6037
:1032D0001FC00F003F8C71CC60EC607C70383CFCF0
:1032E0001FCE0000000000000000000000000000F1
:1032F00000000000000003C0018001800180000088
:1033000000000000000000000000000000000000BD
:1033100000000000000000000000000000000000AD
:1033200000000000003000E001C001800300070041
:10333000060006000E000E000E000E00060007003C
:103340000300038001C000E0003000000000000026
:10335000000000000C0006000380018001C000E0B6
:10336000006000600070007000700060006000E0AD
:1033700000C00180038006000C0000000000000077
:10338000000000000000018011881DB803C007E0A4
:103390003DBC01880180000000000000000000002A
:1033A000000000000000000000000000000000001D
:1033B000000000000000000000000000018001800B
:1033C0000180018001807FFE0180018001800180F9
:1033D00000000000000000000000000000000000ED
:1033E00000000000000000000000000000000000DD
:1033F00000000000000000000000000003C003C047
:1034000001C001C003801F00000000000000000098
:1034100000000000000000000000000000000000AC
:103420000000000000000FF000000000000000009D
:10343000000000000000000000000000000000008C
:10344000000000000000000000000000000000007C
:1034500000000000000000000000000003C003C0E6
:1034600003C0000000000000000000000000000099
:10347000000000000000001800380030006000E08C
:1034800000C001C001800300030006000E000C0014
:103490001C001800300000000000000000000000C8
:1034A00000000000000001800FF01C38381C301CA8
:1034B000707E70EE738E7E0E7C0C300C381C1E7885
:1034C0000FE000000000000000000000000000000D
:1034D000000000000000000007C01FC039C001C08C
:1034E00001C001C001C001C001C001C001C03FFC5A
:1034F0003FFC000000000000000000000000000091
:1035000000000000000003801FF018380038001889
:1035100000380038007001E0038007001C003FFC09
:103520003FFC000000000000000000000000000060
:1035300000000000000007801FF00038003800384D
:10354000003007E007F00038001C001C001820F8CD
:103550003FE000000000000000000000000000004C
:10356000000000000000000000F001B00330073050
:103570000E301C30383070307FFE7FFE003000305F
:10358000003000000000000000000000000000000B
:1035900000000000000000001FF8180018001800CC
:1035A00018001FE000F8001C001C001C003800F090
:1035B0001FC000000000000000000000000000002C
:1035C000000000000000000003F80F001C001800BD
:1035D000300037F83C3C300C300C380C381C1E38AE
:1035E0000FF00000000000000000000000000000DC
:1035F00000000000000000003FFC001C0018003824
:103600000070006000E001C0018003800700060038
:103610000E0000000000000000000000000000009C
:1036200000000000000003C01FF8381C381C381CC4
:103630001C380FF007F01C78381C300C381C3C3854
:103640000FF000000000000000000000000000007B
:1036500000000000000003801FF03838301C701C90
:10366000700C380C1FFC0FCC001C001800701FE001
:103670001F800000000000000000000000000000AB
:10368000000000000000000000000000000003C077
:1036900003C00180000000000000000003C003C060
:1036A00003C0000000000000000000000000000057
:1036B000000000000000000000000000000003C047
:1036C00003C00180000000000000000003C003C030
:1036D00001C001C003800F000000000000000000D6
:1036E000000000000000000000000000003800F0B2
:1036F00001C007001E0038000E00078001C00070E6
:103700000030000000000000000000000000000089
:1037100000000000000000000000000000000000A9
:1037200000003FFC000000003FFC3FFC00000000E8
:103730000000000000000000000000000000000089
:103740000000000000000000000000001C000F004E
:10375000038001E00078001C007001E003800E008F
:103760000C0000000000000000000000000000004D
:103770000000000000000FC000F0003800380038E2
:10378000003803F0038003000300000000000780FE
:1037900007800000000000000000000000000000A2
:1037A0000000000000E007F80C0C1806300670035B
:1037B00063F36633C673CC63CC62CC66CCE6C7FCDD
:1037C000E0006000700038101FF0000000000000F2
:1037D000000000000000000003C007E006E00E70DB
:1037E0000E700C301C3818183FFC3FFC700E600E39
:1037F000E0070000000000000000000000000000E2
:1038000000000000000000003FF03838381C381C71
:1038100038383FF03FF8381C380C380C381C3FF86B
:103820003FE0000000000000000000000000000079
:1038300000000000000000E007FC1E043800380013
:103840003000700070007000300038003C001F9C99
:1038500007FC000000000000000000000000000065
:1038600000000000000000003FF03078301C300CF9
:10387000300E300E300E300E300E301C30383FF02F
:103880003FC0000000000000000000000000000039
:1038900000000000000000001FF8180018001800C9
:1038A00018001FF81FF818001800180018001FF85B
:1038B0001FF80000000000000000000000000000F1
:1038C00000000000000000001FF818001800180099
:1038D00018001FF81FF8180018001800180018002A
:1038E00018000000000000000000000000000000C0
:1038F00000000000000000F007FC1E04380030004B
:103900007000700070FC700C700C300C380C1F1CB8
:1039100007FC0000000000000000000000000000A4
:103920000000000000000000300C300C300C300CA7
:10393000300C3FFC3FFC300C300C300C300C300CA9
:10394000300C00000000000000000000000000003B
:1039500000000000000000003FFC018001800180A9
:1039600001800180018001800180018001803FFC95
:103970003FFC00000000000000000000000000000C
:1039800000000000000000001FF000300030003098
:1039900000300030003000300030003000701DE09A
:1039A0001FC0000000000000000000000000000038
:1039B0000000000000000000381C387038E039C0FA
:1039C0003B803F003F003B8039C038E038703838DA
:1039D000381C000000000000000000000000000093
:1039E00000000000000000001C001C001C001C0067
:1039F0001C001C001C001C001C001C001C001FFCE8
:103A00001FFC00000000000000000000000000009B
:103A10000000000000000000381C7C3C6C3E6E6E14
:103A2000666E66CE63C66386618660066006600663
:103A30006006000000000000000000000000000020
:103A400000000000000000003C0C3C0C3E0C360C5A
:103A5000330C338C318C31CC30EC306C307C303CDE
:103A6000301C00000000000000000000000000000A
:103A700000000000000001C00FF81C3C381C700E54
:103A8000700E60066006700E700E700C381C1E788A
:103A90000FE0000000000000000000000000000037
:103AA00000000000000000003FF0383C381C380CDB
:103AB000380C381C38783FE03800380038003800BF
:103AC00038000000000000000000000000000000BE
:103AD00000000000000001C00FF81C3C381C700EF4
:103AE000700E60066006700E700E700C381C1E782A
:103AF0000FE0018001C000FF003C0000000000005A
:103B000000000000000000003FF038383818381876
:103B1000383838F03FC038E0387038383838381C1A
:103B2000380E00000000000000000000000000004F
:103B300000000000000001E00FF8380038003800F5
:103B40003C001F8003F00078001C001C001C38782B
:103B50003FE0000000000000000000000000000046
:103B600000000000000000007FFE01800180018055
:103B7000018001800180018001800180018001803D
:103B800001800000000000000000000000000000B4
:103B90000000000000000000300C300C300C300C35
:103BA000300C300C300C300C300C300C381C1C3805
:103BB0000FF0000000000000000000000000000006
:103BC0000000000000000000E006700E700E381CBF
:103BD000381C1C181C380C300E70066007E003C03F
:103BE00003C0000000000000000000000000000012
:103BF000000000000000000060066006600660062D
:103C00006186638673C673CE766C366C3C3C3C3CF6
:103C1000381C000000000000000000000000000050
:103C20000000000000000000301C38181C380E7026
:103C300007E003C003C007E00E701C381838381CBA
:103C4000700E0000000000000000000000000000F6
:103C50000000000000000000700E700C381C1C38C2
:103C60000E70066007E003C00180018001800180C2
:103C700001800000000000000000000000000000C3
:103C800000000000000000003FFC001C0038007035
:103C900000E001C0038007000E000C0018003FFC8C
:103CA0003FFC0000000000000000000000000000D9
:103CB0000000000007F007F00600060006000600FE
:103CC00006000600060006000600060006000600C4
:103CD000060006000600060007F0000000000000D5
:103CE00000000000000018001C000C000600070087
:103CF00003000380018001C000C00060007000303C
:103D000000380018000C0000000000000000000057
:103D1000000000000FE00FE0006000600060006045
:103D20000060006000600060006000600060006093
:103D300000600060006000600FE000000000000014
:103D4000000000000000000003C006C006600C3048
:103D50001818301C000000000000000000000000E7
:103D60000000000000000000000000000000000053
:103D70000000000000000000000000000000000043
:103D80000000000000000000000000000000000033
:103D90000000000000000000FFFF00000000000025
:103DA0000000000000001E00038000000000000072
:103DB0000000000000000000000000000000000003
:103DC00000000000000000000000000000000000F3
:103DD00000000000000000000000000000001FF0D4
:103DE0001038001C001C0FFC1C1C381C381C3CFC30
:103DF0001FDC0000000000000000000000000000C8
:103E000000000000000038003800380038003BF89F
:103E10003E1C3C1C380C380C380C380C381C3C78D8
:103E20001FE0000000000000000000000000000093
:103E3000000000000000000000000000000007F883
:103E40000E001C0038003800380038001C000F1825
:103E500007F8000000000000000000000000000063
:103E6000000000000000001C001C001C001C0FFCD7
:103E70001C1C381C301C301C301C301C383C1CFCFA
:103E80000F9C000000000000000000000000000087
:103E900000000000000000000000000000000FF023
:103EA0001C38381C300C3FFC3000300038001E0C31
:103EB00007FC0000000000000000000000000000FF
:103EC00000000000003C01FE03800300030003002B
:103ED0007FFC7FFC030003000300030003000300DA
:103EE00003000000000000000000000000000000CF
:103EF00000000000000000000000000000000FFEB5
:103F00001C383818381818381FF03B8030003FF044
:103F10001FFC300E700E381C1FF80000000000005F
:103F200000000000000038003800380038003BF87E
:103F30003E383C1C381C381C381C381C381C381CBB
:103F4000381C00000000000000000000000000001D
:103F500000000000018003C003C0000000001FC07B
:103F600001C001C001C001C001C001C001C001C049
:103F70003FFC000000000000000000000000000006
:103F800000000000002000700070000000003FF002
:103F900000700070007000700070007000700070A1
:103FA00000700070007020E03FC0000000000000C2
:103FB0000000000000001800180018001800183C4D
:103FC000187018E01B801F001B8019E0187018384B
:103FD000181C0000000000000000000000000000AD
:103FE0000000000000001FC001C001C001C001C0EE
:103FF00001C001C001C001C001C001C001C001C0B9
:104000003FFC000000000000000000000000000075
:1040100000000000000000000000000000006F3CF5
:1040200079EE71CE718E718E718E718E718E718EF0
:10403000718E000000000000000000000000000081
:1040400000000000000000000000000000003BF83D
:104050003E383C1C381C381C381C381C381C381C9A
:10406000381C0000000000000000000000000000FC
:1040700000000000000000000000000000000FF041
:104080001C3C381C700E700E700E700C381C1E78A4
:104090000FE0000000000000000000000000000031
:1040A00000000000000000000000000000003BF8DD
:1040B0003E1C3C1C380C380C380C380C381C3C7836
:1040C0003FE03800380038003800000000000000F1
:1040D00000000000000000000000000000000FFCD5
:1040E0001C1C381C301C301C301C301C383C1CFC88
:1040F0000F9C001C001C001C001C000000000000A5
:10410000000000000000000000000000000019F89E
:104110001F1C1C0C180E180018001800180018009E
:104120001800000000000000000000000000000077
:1041300000000000000000000000000000000FF878
:104140001C0018001E000FC001F8001800181838D5
:104150001FF0000000000000000000000000000050
:1041600000000000000000000600060006007FFCC2
:104170000600060006000600060006000700078489
:1041800001FC000000000000000000000000000032
:104190000000000000000000000000000000381CCB
:1041A000381C381C381C381C381C381C383C1CFC8B
:1041B0000FDC000000000000000000000000000014
:1041C0000000000000000000000000000000700C73
:1041D000381C38181C380C300E70066007E003C01D
:1041E00003C000000000000000000000000000000C
:1041F0000000000000000000000000000000600659
:1042000060066186738E73CC33CC366C366C3C3C66
:104210003C3800000000000000000000000000002A
:104220000000000000000000000000000000381C3A
:104230001C380E7007E003C003C007E00E701C3886
:10424000381E000000000000000000000000000018
:104250000000000000000000000000000000700CE2
:10426000381C38181C380C300E70066007E003C08C
:1042700003C0038007000E007C0000000000000067
:1042800000000000000000000000000000001FF817
:104290000038007000E001C0038007000C001FFC24
:1042A0003FFC0000000000000000000000000000D3
:1042B00000000000007801F8038003800380038081
:1042C000038003003F003E0003000380038003805F
:1042D00003800380038001C000F80000000000009C
:1042E00001800180018001800180018001800180C6
:1042F00001800180018001800180018001800180B6
:104300000180018001800180018000000000000028
:10431000000000001E001F80018001C001C001C01C
:1043200001C000C000FC007C00C001C001C001C091
:1043300001C001C001C003801F0000000000000098
:10434000000000000000000000000000000000006D
:1043500000001C003F0671CE60FC00000000000061
:10436000000000000000000000000000000000004D
:10437000000000000000000000000000000000003D
:10438000000000000000000000000000000000002D
:10439000000000000000000000000000000000001D
:1043A000000000000000000000000000000000000D
:1043B00000000000000000000000000000000000FD
:1043C00000000000000000000000000000000000ED
:1043D0000000000000000000000000000000003CA1
:1043E00000003C00003C00003C00003C00003C00A1
:1043F000003C00003C00003C00003C00003C000091
:104400003C00003C00003C00000000000000003CBC
:1044100000007E00003C00000000000000000000E2
:10442000000000000000000000000000000000008C
:10443000000000000000000000000000000003C3B6
:10444000E003C3E003C3C003C3C003C3C003C3C0CE
:1044500003C1C000000000000000000000000000D8
:10446000000000000000000000000000000000004C
:10447000000000000000000000000000000000003C
:10448000000000000000000000000000000000002C
:10449000000000000000000000000000000000001C
:1044A0000000000001E0E001C0E001C0E001C0E068
:1044B0003FFFFE3FFFFE03C1C00381C00381C00375
:1044C00081C07FFFFC7FFFFC078380070380070319
:1044D0008007038007078000000000000000000044
:1044E00000000000000000000000000000000000CC
:1044F0000000000000000000000000000700000FA6
:1045000000000E0001FFF007FFF01F0E001E1E004E
:104510001E1C001E1C000FDC0007FC0000FF8000BA
:104520003FF00038F800387800783C00707830713F
:10453000F83FFFE01FFF0000E00000E00000E000A7
:10454000000000000000000000000000000000006B
:1045500000000000000000000000000000000F80CC
:104560000F3FE01E78703C7070707070E07071C02A
:104570003FE3801FC700000E00001C000078000011
:10458000F0F001E7FC03CF0E078E0E0F0E0E1E0E8D
:104590000E3C07BC7003F8000000000000000000A3
:1045A000000000000000000000000000000000000B
:1045B00000000000000000000000000000000000FB
:1045C0000001FF0007FF800F03C00F03C00F03C0EF
:1045D0000F0780079F0003FE0003F0000FF83C3E2A
:1045E0007C3C3C1F3C780FF87807F87C01F03E03D8
:1045F000F81FFFFC07FE1F00000000000000000085
:1046000000000000000000000000000000000000AA
:104610000000000000000000000000000000003E5C
:1046200000003C00003C00003C00003C00003C005E
:10463000003C00000000000000000000000000003E
:10464000000000000000000000000000000000006A
:10465000000000000000000000000000000000005A
:10466000000000000000000000000000000000004A
:1046700000000000000000000000000000800001B9
:10468000C0000780000F00001E00003C0000780002
:1046900000F00000E00001E00001E00001C00003C4
:1046A000C00003C00001C00001E00001E00000F014
:1046B0000000F000007800003C00001E00000F0029
:1046C0000007C00001C00000000000000000000062
:1046D000000000000000000000000000000003C017
:1046E0000001E00000F000007C00003E00001E0021
:1046F000000F000007800007800003800003C00057
:1047000003C00003C00003C000038000078000074F
:1047100080000F00001E00003C0000780000F00048
:1047200001E0000380000000000000000000000025
:104730000000000000000000000000000000001C5D
:1047400000001C000018000F18F007DBE0007F00DD
:1047500000FF0007DBE00E1870001800001C0000CE
:104760001C0000000000000000000000000000002D
:104770000000000000000000000000000000000039
:104780000000000000000000000000000000000029
:104790000000000000000000000000000000000019
:1047A00000000000000000000000000000003C00CD
:1047B000003C00003C00003C00003C00003C003F8E
:1047C000FFFC3FFFFC003C00003C00003C00003CC4
:1047D00000003C000000000000000000000000009D
:1047E00000000000000000000000000000000000C9
:1047F00000000000000000000000000000000000B9
:1048000000000000000000000000000000000000A8
:104810000000000000000000000000000000000098
:104820000000000000000000000000007C00007E8E
:1048300000007E00003E00001E00003C0000F8006A
:1048400007E000040000000000000000000000007D
:104850000000000000000000000000000000000058
:104860000000000000000000000000000000000048
:104870000000000000000000000000000000000335
:10488000FFE003FFE0000000000000000000000067
:104890000000000000000000000000000000000018
:1048A0000000000000000000000000000000000008
:1048B00000000000000000000000000000000000F8
:1048C00000000000000000000000000000000000E8
:1048D00000000000000000000000000000000000D8
:1048E0000000000000000000000000007C0000FE4E
:1048F0000000FE00007E000000000000000000003C
:1049000000000000000000000000000000000000A7
:104910000000000000000000000000000000000097
:10492000780000F00000E00001E00003C000038018
:10493000000780000F00000E00001E00003C000079
:10494000380000700000F00000E00001C00003C06B
:10495000000780000700000F00001E00001C000080
:104960000000000000000000000000000000000047
:104970000000000000000000000000000000000037
:104980000000000001FFC007FFE00F00F01E0078EC
:104990001E003C3C00FC3C07FC3C1FBC3C7C1C3D1E
:1049A000F03C3FC03C3F003C1E00381E00780F80AA
:1049B000F007FFE001FF80000000000000000000A1
:1049C00000000000000000000000000000000000E7
:1049D00000000000000000000000000000000000D7
:1049E00000000000007E0003FE001FDE000E1E001F
:1049F000001E00001E00001E00001E00001E000021
:104A00001E00001E00001E00001E00001E00001EF2
:104A1000000FFFF80FFFF80000000000000000008A
:104A20000000000000000000000000000000000086
:104A30000000000000000000000000000000000076
:104A40000000000003FF800FFFE00E01F00000F007
:104A50000000F00000F00000F00001E00003C000E2
:104A60000F80003E00007C0001F00003C0000F80BA
:104A7000001FFFFC1FFFFC00000000000000000002
:104A80000000000000000000000000000000000026
:104A90000000000000000000000000000000000016
:104AA000000000000FFF800FFFE00001E00000F0B9
:104AB0000000F00001E00003C001FF0001FFC000A2
:104AC00003F0000078000078000078000078000112
:104AD000F00FFFC00FFF000000000000000000000A
:104AE00000000000000000000000000000000000C6
:104AF00000000000000000000000000000000000B6
:104B000000000000000FC0001FC0003FC0007BC0BD
:104B100000F3C001E3C003C3C00783C00F03C01C80
:104B200003C03803C07FFFFE7FFFFE0003C0000309
:104B3000C00003C00003C00000000000000000002F
:104B40000000000000000000000000000000000065
:104B50000000000000000000000000000000000055
:104B6000000000000FFFE00FFFE00F00000F00004B
:104B70000F00000F00000F00000FFF800FFFE0008C
:104B800000F00000780000780000780000F00003DA
:104B9000E00FFFC00FFE000000000000000000005A
:104BA0000000000000000000000000000000000005
:104BB00000000000000000000000000000000000F5
:104BC00000000000003FF001FFF003E0000780005C
:104BD0000F00001E00001E1F001FFFE01FC1F81E77
:104BE00000781E003C1E003C1E003C0F00780F8029
:104BF000F807FFE001FF8000000000000000000057
:104C000000000000000000000000000000000000A4
:104C10000000000000000000000000000000000094
:104C2000000000001FFFFC1FFFFC0000780000F0E8
:104C30000000E00001E00003C0000780000F00005A
:104C40000F00001E00003C0000780000F00001F0A2
:104C50000001E00003C000000000000000000000B0
:104C60000000000000000000000000000000000044
:104C70000000000000000000000000000000000034
:104C80000000000003FFE00FE3F00F00781E007843
:104C90001E00780F00F007E3E001FF8001FF8007AE
:104CA000E7E00F00F81E00781E003C1E007C1F008D
:104CB000F80FFFF003FFC00000000000000000003C
:104CC00000000000000000000000000000000000E4
:104CD00000000000000000000000000000000000D4
:104CE0000000000003FF800FC7E01E00F01E0078E8
:104CF0003C00783C00783C00381E00780FEFF80745
:104D0000FFB80000780000780000F00001E0000F1C
:104D1000C00FFF000FF000000000000000000000C6
:104D20000000000000000000000000000000000083
:104D30000000000000000000000000000000000073
:104D40000000000000000000000000000000000063
:104D5000007E00007E00007E0000180000000000C1
:104D60000000000000000000000000003C00007E89
:104D700000007E00003E0000000000000000000077
:104D80000000000000000000000000000000000023
:104D90000000000000000000000000000000000013
:104DA0000000000000000000000000000000000003
:104DB000007E00007E00007E000018000000000061
:104DC0000000000000000000000000003E00007E27
:104DD00000007F00001F00001E00001E0000FC00FD
:104DE00007F00004000000000000000000000000C8
:104DF00000000000000000000000000000000000B3
:104E0000000000000000000000000000400001E081
:104E10000007C0001F00007E0001F80003E0000F43
:104E200080000F800003E00000F800003E00000F4B
:104E3000800003E00000E00000000000000000002F
:104E40000000000000000000000000000000000062
:104E50000000000000000000000000000000000052
:104E60000000000000000000000000000000000042
:104E70000000000000000000001FFFF8000000001C
:104E800000000000001FFFF81FFFF80000000000F6
:104E90000000000000000000000000000000000012
:104EA0000000000000000000000000000000000002
:104EB00000000000000000000000000000000000F2
:104EC000000000000000000000000000000780005B
:104ED00003E00000F800003E00000F800003E00047
:104EE00000F80001F00007C0001F00007C0001F086
:104EF0000007C000030000000000000000000000E8
:104F000000000000000000000000000000000000A1
:104F1000000000000000000000000000000001C0D0
:104F20000001FE00007F800007C00001E00000F0EB
:104F30000000F00001F00003E0007FC0007E0000F0
:104F4000700000700000700000000000000000F819
:104F50000000F80000F80000000000000000000061
:104F60000000000000000000000000000000000041
:104F70000000000000000000000000000000001F12
:104F80008000FFF003C07807801C0E000E1C000E8E
:104F90003C000F383FC778FFC770E3C771C3C7F342
:104FA000C387E3C387E3878EE3878EE3CF8EE3FF78
:104FB000FC71F9F07000007000003800003C000047
:104FC0000F01C007FFC0000000000000000000004B
:104FD00000000000000000000000000000000000D1
:104FE00000000000007E00007F0000FF0000E7805E
:104FF00001E78003C3C003C3C00781E00781E00F5E
:1050000000F00F00F81FFFF81FFFFC3C003C3C00C5
:105010001E78001EF0000F000000000000000000DD
:105020000000000000000000000000000000000080
:105030000000000000000000000000000000000070
:10504000000000001FFFC01FFFF01E00F01E0078D0
:105050001E00781E00F01E01F01FFFC01FFFE01EA3
:1050600001F81E00781E003C1E003C1E00781E0049
:10507000F81FFFE01FFF000000000000000000001C
:105080000000000000000000000000000000000020
:105090000000000000000000000000000000000010
:1050A0000000000000FFF803FFF807C0000F000039
:1050B0001E00001E00003C00003C00003C00003CC4
:1050C00000003C00003E00001E00000F00000FC06A
:1050D0000803FFF800FFF8000000000000000000D7
:1050E00000000000000000000000000000000000C0
:1050F00000000000000000000000000000000000B0
:10510000000000003FFF003FFFE03C01F03C007862
:105110003C003C3C003C3C003C3C001E3C001E3C37
:10512000001E3C003C3C003C3C00783C00F83C0746
:10513000E03FFFC03FFC0000000000000000000056
:10514000000000000000000000000000000000005F
:10515000000000000000000000000000000000004F
:10516000000000000FFFF00FFFF00F00000F000025
:105170000F00000F00000F00000FFFF00FFFF00FF7
:1051800000000F00000F00000F00000F00000F00D4
:10519000000FFFF00FFFF000000000000000000013
:1051A00000000000000000000000000000000000FF
:1051B00000000000000000000000000000000000EF
:1051C000000000000FFFF00FFFF00F00000F0000C5
:1051D0000F00000F00000F00000FFFF00FFFF00F97
:1051E00000000F00000F00000F00000F00000F0074
:1051F000000F00000F000000000000000000000091
:10520000000000000000000000000000000000009E
:10521000000000000000000000000000000000008E
:105220000000000000FFFC03FFFC0FC0041F000093
:105230001E00003C00003C0000780FFC780FFC785A
:10524000003C3C003C3C003C3E003C1F003C0FC08E
:105250003C03FFFC00FFF80000000000000000001D
:10526000000000000000000000000000000000003E
:10527000000000000000000000000000000000002E
:10528000000000003C003C3C003C3C003C3C003C3E
:105290003C003C3C003C3C003C3FFFFC3FFFFC3CF6
:1052A000003C3C003C3C003C3C003C3C003C3C00A6
:1052B0003C3C003C3C003C000000000000000000C2
:1052C00000000000000000000000000000000000DE
:1052D00000000000000000000000000000000000CE
:1052E000000000000FFFF80FFFF8003C00003C003A
:1052F000003C00003C00003C00003C00003C000082
:105300003C00003C00003C00003C00003C00003C35
:10531000000FFFF80FFFF800000000000000000081
:10532000000000000000000000000000000000007D
:10533000000000000000000000000000000000006D
:10534000000000000FFFE00FFFE00001E00001E0BF
:105350000001E00001E00001E00001E00001E000E8
:1053600001E00001E00001E00001E00003C00C07E3
:10537000C00FFF8007FE00000000000000000000DA
:10538000000000000000000000000000000000001D
:10539000000000000000000000000000000000000D
:1053A000000000001E00781E01F01E03C01E0780D2
:1053B0001E1F001E3C001E78001EF0001FF0001E85
:1053C000F8001E3C001E1E001E0F801E07C01E019E
:1053D000E01E00F81E007C0000000000000000003D
:1053E00000000000000000000000000000000000BD
:1053F00000000000000000000000000000000000AD
:105400000000000007800007800007800007800080
:1054100007800007800007800007800007800007E2
:105420008000078000078000078000078000078059
:105430000007FFF807FFF800000000000000000070
:10544000000000000000000000000000000000005C
:10545000000000000000000000000000000000004C
:10546000000000003E007C3F00FC3F81DC3B81DC13
:105470003BC39C39C39C38E71C38EF1C387E1C3872
:105480007C1E383C1E78001E78001E78001E7800B6
:105490001E78001E78001E000000000000000000C2
:1054A00000000000000000000000000000000000FC
:1054B00000000000000000000000000000000000EC
:1054C000000000001F003C1F803C1FC03C1DC03C72
:1054D0001DE03C1CF03C1C783C1C783C1C3C3C1CFB
:1054E0001E3C1C0F3C1C0F3C1C07BC1C03FC1C017D
:1054F000FC1C00FC1C00FC00000000000000000080
:10550000000000000000000000000000000000009B
:10551000000000000000000000000000000000008B
:105520000000000001FFC007FFF00F00F81E007C24
:105530003C003C3C001E78001E78001E78001E785F
:10554000001E78001E3C003C3C003C1E00781F0002
:10555000F007FFE001FF80000000000000000000F5
:10556000000000000000000000000000000000003B
:10557000000000000000000000000000000000002B
:10558000000000001FFF801FFFF01E00F81E007CBF
:105590001E003C1E003C1E003C1E00781E03F01F37
:1055A000FFC01FFE001E00001E00001E00001E00A7
:1055B000001E00001E0000000000000000000000AF
:1055C00000000000000000000000000000000000DB
:1055D00000000000000000000000000000000000CB
:1055E0000000000001FFC007FFF00F00F81E007C64
:1055F0003C003C3C001E78001E78001E78001E789F
:10560000001E78001E3C003C3C003C1E00781F80C1
:10561000F007FFE001FF80003C00003C00001F0697
:10562000000FFF0001F80000000000000000000073
:10563000000000000000000000000000000000006A
:10564000000000000FFF800FFFE00E01F00E00F0E1
:105650000E00F00E00F00E01F00FFFC00FFF000E65
:105660001F000E07800E03C00E01E00E00F00E00BA
:10567000F80E00780E003C00000000000000000062
:10568000000000000000000000000000000000001A
:10569000000000000000000000000000000000000A
:1056A0000000000003FFF00FFFF01F00001E0000CD
:1056B0001E00001F00000FC00007FC0000FF80005C
:1056C0000FF00001F800007800007800007820005A
:1056D000F83FFFE03FFF80000000000000000000F6
:1056E00000000000000000000000000000000000BA
:1056F00000000000000000000000000000000000AA
:10570000000000003FFFFC3FFFFC003C00003C00AD
:10571000003C00003C00003C00003C00003C00005D
:105720003C00003C00003C00003C00003C00003C11
:1057300000003C00003C00000000000000000000F1
:105740000000000000000000000000000000000059
:105750000000000000000000000000000000000049
:10576000000000003C003C3C003C3C003C3C003C59
:105770003C003C3C003C3C003C3C003C3C003C3C95
:10578000003C3C003C3C003C3C003C1E00781F00C0
:10579000F80FFFE003FF80000000000000000000A1
:1057A00000000000000000000000000000000000F9
:1057B00000000000000000000000000000000000E9
:1057C00000000000F8000F78001E3C001E3C003C6A
:1057D0001E00381E00780F00700F00F00781E007F0
:1057E00081E003C3C003E3C001E78000F78000FF4E
:1057F00000007E00007E00000000000000000000AD
:105800000000000000000000000000000000000098
:105810000000000000000000000000000000000088
:105820000000000078000E78000E78000E78001E50
:1058300038001E38001E383C1C383C1C387E1C3892
:105840007F1C3CE71C3CE79C3DC39C1DC3DC1F81C7
:10585000DC1F80F81F00F8000000000000000000BE
:105860000000000000000000000000000000000038
:105870000000000000000000000000000000000028
:10588000000000003C003C1E00780F00F00781E0A3
:1058900003C3C001E78000FF00007E00007E00001F
:1058A000FF0001FF8003E7C007C3E00F81F01F0086
:1058B000F83E007C7C003E0000000000000000007C
:1058C00000000000000000000000000000000000D8
:1058D00000000000000000000000000000000000C8
:1058E0000000000078001F3C003E1E007C1F007876
:1058F0000F80F007C1E003E3C001E78000FF000074
:105900007E00003C00003C00003C00003C00003CED
:1059100000003C00003C000000000000000000000F
:105920000000000000000000000000000000000077
:105930000000000000000000000000000000000067
:10594000000000001FFFFC1FFFFC0000F80001E04A
:105950000003C0000780000F00001E00003C000094
:10596000780000F00003E00007C0000F80001F0077
:10597000003FFFFC3FFFFC000000000000000000B3
:105980000000000000000000000000000000000017
:10599000000000000000000000000000000001FF07
:1059A000C001FFC001E00001E00001E00001E000F3
:1059B00001E00001E00001E00001E00001E0000181
:1059C000E00001E00001E00001E00001E00001E092
:1059D0000001E00001E00001E00001E00001E00062
:1059E00001E00001FFC00000000000000000000016
:1059F00000000000000000000000000000000E0099
:105A0000000F000007000003800003C00001E00059
:105A100000E00000F000007800003800003C0000CA
:105A20001E00000E00000F00000780000380000130
:105A3000C00001E00000E000007000007800003CC1
:105A40000000000000000000000000000000000056
:105A5000000000000000000000000000000003FF44
:105A60008003FF8000078000078000078000078018
:105A70000007800007800007800007800007800083
:105A8000078000078000078000078000078000076C
:105A900080000780000780000780000780000780E3
:105AA00000078003FF8000000000000000000000ED
:105AB00000000000000000000000000000000000E6
:105AC00000000000003C00007E0000E70001C380F1
:105AD0000381C00700E00E00F01E00780000000007
